:100000000C9434000C9449000C9449000C94490061
:100010000C9449000C9449000C9449000C9449003C
:100020000C9449000C9449000C9449000C9449002C
:100030000C9449000C9449000C9449000C9449001C
:100040000C9449000C9449000C9449000C9449000C
:100050000C9449000C9449000C9449000C944900FC
:100060000C9449000C94490011241FBECFEFD8E036
:10007000DEBFCDBF11E0A0E0B1E0EEE0F2E002C0F3
:1000800005900D92A031B107D9F70E944B000C9456
:1000900005010C940000CF93DF93CDB7DEB76297D4
:1000A0000FB6F894DEBF0FBECDBF80E1E0E0F1E017
:1000B000DE01119601900D928A95E1F78FEF84B9D8
:1000C0008AB90F2EF8EEEF2EF3E0FF2EF02D0F2E53
:1000D000F4E65F2EF02D412C0F2EFAE06F2E712CDE
:1000E000F02D352C242C882483946894992491F83D
:1000F0006894AA24A2F86894BB24B3F800E010E046
:1001000031C08BB86C9165B989EF90E00197F1F738
:1001100000C000009BB8F601608165B989EF90E0EE
:100120000197F1F700C00000ABB8FA01608165B932
:1001300089EF90E00197F1F700C00000BBB8E989B2
:10014000FA89608165B989EF90E00197F1F700C005
:10015000000021503109A9F60F5F1F4F003197E2CF
:10016000190761F2C801B7010E94DD006B01652D1E
:10017000742D0E94DD00FB01B3010E94DD00232DE0
:10018000322DA1E0B0E0AC0FBD1FAC0DBD1DCC24E5
:10019000C394D12CCC0EDD1ECE0EDF1E41E050E00C
:1001A0004C0F5D1F460F571FE1E0F0E0EC0FFD1F05
:1001B000E80FF91FFA8BE98BA4CF97FB072E16F4F3
:1001C000009407D077FD09D00E94F10007FC05D00C
:1001D0003EF4909581959F4F0895709561957F4F5E
:1001E0000895AA1BBB1B51E107C0AA1FBB1FA6177E
:1001F000B70710F0A61BB70B881F991F5A95A9F7D0
:0E02000080959095BC01CD010895F894FFCF34
:10020E00C0F9A4B0999282F880908883C6A1868E98
:00000001FF
