:100000000C9434000C9451000C9451000C94510049
:100010000C9451000C9451000C9451000C9451001C
:100020000C9451000C9451000C9451000C9451000C
:100030000C9451000C9451000C9451000C945100FC
:100040000C9451000C9451000C9451000C945100EC
:100050000C94A8000C9451000C9451000C94510085
:100060000C9451000C94510011241FBECFEFD8E026
:10007000DEBFCDBF11E0A0E0B1E0E6EAF1E002C0F2
:1000800005900D92AA31B107D9F721E0AAE1B1E0BC
:1000900001C01D92AC39B207E1F70E9486000C94B2
:1000A000D1000C94000090911A01E92FF0E0E45E79
:1000B000FE4F80839F5F1AF090931A01089510926B
:1000C0001A0108951F93CF93DF93EC0110E007C04E
:1000D000FE01E80FF91F80810E9453001F5F812FEE
:1000E00090E0EC2FFD2FDF010D900020E9F7119734
:1000F000AE1BBF0B8A179B0758F38091C00085FD8C
:100100001092C600DF91CF911F9108951092C50003
:1001100087E68093C40088E48093C10086E08093E2
:10012000C200789480E091E00E94620088E091E053
:100130000E9462002FEF8DE399E4215080409040AF
:10014000E1F700C0000080E191E00E946200FFCF73
:100150001F920F920FB60F9211248F939F93EF93DC
:10016000FF93E0911B0180911A01E81789F0F0E0FC
:10017000E45EFE4F80818093C60090911B01892F21
:100180008F5F1AF080931B0103C09E5F90931B0149
:10019000FF91EF919F918F910F900FBE0F901F9045
:0601A0001895F894FFCF52
:1001A60048454C4C4F0A0D00776F524C640A0D00BF
:0A01B600474F4F444279450A0D00FF
:00000001FF
